:020000040000FA
:04000000830105284B
:06000A00831600308600A1
:10001000831283128501831600308500003085002D
:1000200000308600812081200130860081208120DF
:1000300002308600812081200430860081208120CA
:1000400008308600812081200830860081208120B0
:100050001030860081208120203086008120812080
:10006000FF30860081208120FE3085000030860030
:10007000812081200130860081208120023086008D
:100080008120812004308600812081200830860074
:100090008120812008308600812081201030860058
:1000A000812081202030860081208120FF30860041
:1000B000812081201D308500003086008120812034
:1000C000013086008120812002308600812081203D
:1000D0000430860081208120083086008120812024
:1000E0000830860081208120103086008120812008
:1000F00020308600812081204030860081208120B0
:100100000E28FF308C008D0001308E008C0B86286D
:0A0110008D0B86288E0B8628080050
:00000001FF
