S10600EB7E01A1EE
S11301007F10047F01BE8640B710248603B71026F3
S1130110BD0138B601BD27F8B601BC8101270A81AB
S113012002270C8103270E20E77C10040F20E17ABC
S113013010040F20DB0E20D87F01BDB6100084030D
S1130140810327308D54B610008403810327257F53
S113015001BCB701BD8102260B7C01BC7F01BD7AC5
S113016001BD2010810126187C01BC7C01BC7F01EB
S1130170BD7A01BDB610008403810326F78D1B39B7
S1130180810027057F01BD20EB7C01BC7C01BC7C88
S113019001BC7F01BD7A01BD20DACE10000926FD25
S11301A039B601BE270A7C01BE86FFB710042006BB
S10F01B07A01BE7F10048640B710253B86
S10401BF013A
S9030000FC
